:100000000C9463000C948B000C948B000C948B006C
:100010000C948B000C948B000C948B000C948B0034
:100020000C948B000C948B000C948B000C948B0024
:100030000C948B000C948B000C948B000C948B0014
:100040000C94F1060C948B000C94BF060C9499064A
:100050000C948B000C948B000C948B000C948B00F4
:100060000C948B000C948B000000000024002700EF
:100070002A0000000000250028002B0000000000DE
:1000800023002600290004040404040404040202DA
:100090000202020203030303030301020408102007
:1000A0004080010204081020010204081020000012
:1000B0000008000201000003040700000000000027
:1000C00000003B07240C11241FBECFEFD8E0DEBF99
:1000D000CDBF22E0ACE7B1E001C01D92A43AB20767
:1000E000E1F711E0A0E0B1E0EEEFF1E202C005902F
:1000F0000D92AC37B107D9F710E0C2E6D0E004C0EA
:100100002197FE010E94E60EC136D107C9F70E9471
:10011000B5070C94F2100C940000AF92BF92CF92EE
:10012000DF92EF92FF920F931F93CF93DF936C01B7
:100130007B018B01040F151FEB015E01AE18BF0898
:10014000C017D10759F06991D601ED91FC9101904A
:10015000F081E02DC6010995892B79F7C501DF9162
:10016000CF911F910F91FF90EF90DF90CF90BF90B4
:10017000AF900895FC01448155816081718188E8C8
:1001800092E00C948D00FC01538D448D252F30E0BE
:10019000842F90E0821B930B541710F0CF96089594
:1001A00001970895FC01918D828D981761F0A28DC1
:1001B000AE0FBF2FB11D5D968C91928D9F5F9F7387
:1001C000928F90E008958FEF9FEF0895FC01918D3D
:1001D000828D981731F0828DE80FF11D858D90E0AA
:1001E00008958FEF9FEF0895FC01918D228D892F47
:1001F00090E0805C9F4F821B91098F73992708952F
:100200008BEB91E00E94F40021E0892B09F420E0BF
:10021000822F089580E090E0892B29F00E94000150
:1002200081110C9400000895FC01A48DA80FB92F32
:10023000B11DA35ABF4F2C91848D90E001968F730E
:100240009927848FA689B7892C93A089B1898C912D
:10025000837080648C93938D848D981306C002887C
:10026000F389E02D80818F7D80830895EF92FF9246
:100270000F931F93CF93DF93EC0181E0888F9B8DC9
:100280008C8D98131AC0E889F989808185FF15C083
:100290009FB7F894EE89FF896083E889F9898081A6
:1002A0008370806480839FBF81E090E0DF91CF9175
:1002B0001F910F91FF90EF900895F62E0B8D10E097
:1002C0000F5F1F4F0F731127E02E8C8D8E110CC006
:1002D0000FB607FCFACFE889F989808185FFF5CF51
:1002E000CE010E941401F1CFEB8DEC0FFD2FF11D1B
:1002F000E35AFF4FF0829FB7F8940B8FEA89FB898E
:1003000080818062CFCFCF93DF93EC01888D8823EB
:10031000B9F0AA89BB89E889F9898C9185FD03C068
:10032000808186FD0DC00FB607FCF7CF8C9185FF4D
:10033000F2CF808185FFEDCFCE010E941401E9CF7D
:10034000DF91CF910895833081F028F4813099F0C6
:100350008230A9F008958730A9F08830C9F0843040
:10036000B1F4809180008F7D03C0809180008F77F1
:1003700080938000089584B58F7784BD089584B5F7
:100380008F7DFBCF8091B0008F778093B000089570
:100390008091B0008F7DF9CFCF93DF93282F30E08D
:1003A000F901E255FF4F8491F901E656FF4FD491D0
:1003B000F901EA57FF4FC491CC23A1F081110E94AB
:1003C000A301EC2FF0E0EE0FFF1FE458FF4FA591C3
:1003D000B491EC91ED2381E090E009F480E0DF91AD
:1003E000CF91089580E090E0FACF1F93CF93DF93F1
:1003F000282F30E0F901E255FF4F8491F901E656CC
:10040000FF4FD491F901EA57FF4FC491CC23A9F0D3
:10041000162F81110E94A301EC2FF0E0EE0FFF1FB9
:10042000EE58FF4FA591B4918FB7F894EC9111114C
:1004300008C0D095DE23DC938FBFDF91CF911F9151
:100440000895DE2BF8CFCF93DF9390E0FC01E656C2
:10045000FF4F24918A579F4FFC0184918823D1F04C
:1004600090E0880F991FFC01E859FF4FA591B491C6
:10047000FC01EE58FF4FC591D49161110EC09FB79A
:10048000F8948C91E22FE0958E238C932881E223BF
:10049000E8839FBFDF91CF9108958FB7F894EC91D7
:1004A000E22BEC938FBFF6CF3FB7F8948091850194
:1004B00090918601A0918701B091880126B5A89BF3
:1004C00005C02F3F19F00196A11DB11D3FBFBA2FE6
:1004D000A92F982F8827BC01CD01620F711D811DA6
:1004E000911D42E0660F771F881F991F4A95D1F72B
:1004F00008958F929F92AF92BF92CF92DF92EF9228
:10050000FF924B015C010E9454026B017C010E942E
:1005100054026C197D098E099F09683E734081055C
:100520009105A8F321E0821A9108A108B10888EE8C
:10053000C80E83E0D81EE11CF11C81149104A104B3
:10054000B10429F7FF90EF90DF90CF90BF90AF906C
:100550009F908F9008952FB7F894609181017091CA
:10056000820180918301909184012FBF08950895A5
:1005700090E080E008958091AF019091B0018330C8
:10058000910531F11CF4029741F0089584309105F2
:1005900091F1059709F442C008952091B30130917B
:1005A000B4014091B5015091B6016091B7017091CD
:1005B000B8018091B9019091BA010E94920D6093A7
:1005C000AB017093AC018093AD019093AE0108959F
:1005D0002091B3013091B4014091B5015091B60121
:1005E0006091B7017091B8018091B9019091BA0101
:1005F0000E94910DE4CF2091B3013091B40140915C
:10060000B5015091B6016091B7017091B801809128
:10061000B9019091BA010E949C0CD1CF2091B301F5
:100620003091B4014091B5015091B6016091B7018C
:100630007091B8018091B9019091BA010E94FE0DAC
:10064000BECFCF93DF93EC0160E08E810E94F50175
:1006500061E08E810E94F50160E08E810E94F501CB
:100660008BE891E00197F1F7DF91CF910895CF9258
:10067000DF92EF92FF920F931F93CF93DF936C0162
:100680007C0187E0E80EF11CD0E0C0E0062F10E00E
:10069000B8010C2E02C0759567950A94E2F7617057
:1006A000F70181917F010E94F5012196C430D105A7
:1006B00079F7C601DF91CF911F910F91FF90EF90D5
:1006C000DF90CF900C942103CF92DF92EF92FF92B4
:1006D0000F931F93CF93DF93EC01F62E642F8C8141
:1006E0000E94F5018D818F3F19F060E00E94F501B5
:1006F0000F2D10E08F8584FF25C06E0187E0C80EA6
:10070000D11CF12CE12CB8010E2C02C07595679517
:100710000A94E2F76170F60181916F010E94F50180
:10072000FFEFEF1AFF0A88E0E816F10461F7CE0147
:10073000DF91CF911F910F91FF90EF90DF90CF90BD
:100740000C942103B80184E0759567958A95E1F7CB
:10075000CE010E9437036F2DCE01DF91CF911F9103
:100760000F91FF90EF90DF90CF900C94370340E013
:10077000682F88E892E00C94640381E00E94B7033C
:100780008BE39FE10197F1F70895CF93DF938230D8
:1007900029F49091970298609093970280939B021E
:1007A00010929C0280E480939D0280E180939E02DF
:1007B00080E580939F0261E080918C020E94230279
:1007C00080918D028F3F19F061E00E94230261E069
:1007D00080918E020E942302C8E8D2E09E01285830
:1007E00032408091970284FD0BC084E090E0219616
:1007F0002817390744F461E08E810E942302EECF6E
:1008000088E090E0F4CF8BE39DE00197F1F760E0A2
:1008100080918C020E94F50160E080918E020E941E
:10082000F50180918D028F3F19F060E00E94F50183
:100830008091970284FD34C063E088E892E00E94D2
:100840003703CBE4D6E4CE010197F1F763E088E803
:1008500092E00E9437032197F1F763E088E892E085
:100860000E94370383E592E00197F1F762E088E8A0
:1008700092E00E9437038091970280620E94B70342
:1008800084E0809398028CE00E94B7030E94BD032D
:1008900082E08093990286E0DF91CF910C94B703B8
:1008A00080620E94B7038BE496E40197F1F7809190
:1008B000970280620E94B70383E592E00197F1F707
:1008C0008091970280620E94B703D5CF90919B02DE
:1008D000891710F08FEF890FE82FF0E0E857FD4FF0
:1008E000848980680C94B70341E00E94640381E02E
:1008F00090E00895FB0101900020E9F73197AF01E6
:10090000461B570BDC01ED91FC910280F381E02D39
:1009100009948F929F92AF92BF92EF92FF920F93A2
:100920001F93CF93DF93CDB7DEB7A1970FB6F8949F
:10093000DEBF0FBECDBF7C01FA01CB0119A2223070
:1009400008F42AE08E010F5D1F4F822E912CB12CEE
:10095000A12CBF01A50194010E94C40EF901CA0196
:100960006A300CF5605DD8016E938D01232B242B2A
:10097000252B79F790E080E0109721F0BD01C701A9
:100980000E947A04A1960FB6F894DEBF0FBECDBFC9
:10099000DF91CF911F910F91FF90EF90BF90AF909B
:1009A0009F908F900895695CDECFCF92DF92EF9297
:1009B000FF926C01990FEE08FF08F7FE18C041E0A6
:1009C0006DE288E892E00E94640344275527BA014B
:1009D0004C195D096E097F092AE088E892E00E94BF
:1009E00089040196FF90EF90DF90CF9008952AE060
:1009F000B701A60188E892E0FF90EF90DF90CF90DA
:100A00000C9489042F923F924F925F926F927F9243
:100A10008F929F92AF92BF92CF92DF92EF92FF920E
:100A20001F93CF93DF93EC016A017B01722EAB0120
:100A30009601CB01B6010E94AB0E6AE271E0811112
:100A400026C046015701E894B7F82FEF3FEF4FE774
:100A50005FE7C501B4010E94AB0E81110CC02FEFFE
:100A60003FEF4FE75FE7C501B4010E94360C6EE22D
:100A700071E0181664F02FEF3FEF4FE75FE4C70116
:100A8000B6010E94A60E1816B4F462E371E0CE011E
:100A9000DF91CF911F91FF90EF90DF90CF90BF90AB
:100AA000AF909F908F907F906F905F904F903F900E
:100AB0002F900C947A042FEF3FEF4FE75FECC701C4
:100AC000B6010E94360C87FDE0CF20E030E0A9019E
:100AD000C701B6010E94360C312C212C87FF0DC0B6
:100AE000E881F9810190F081E02D6DE2CE01099558
:100AF0001C01F7FAF094F7F8F09410E060E070E071
:100B000080E09FE3711641F020E030E040E251E4E4
:100B10000E94FE0D1F5FF6CFA70196010E94920D65
:100B20002B013C010E94770E4B015C012AE0BC01C5
:100B3000A401CE010E9489047C01E20CF31C112364
:100B4000E1F1C501B4010E943B0C9B01AC01C30162
:100B5000B2010E94910D4B015C01E881F981019085
:100B6000F081E02D6EE2CE010995E80EF91E1150DC
:100B700020F120E030E040E251E4C501B4010E94E0
:100B80009C0C2B013C010E94770E4B01B12CA12C37
:100B90002AE0B501A401CE010E948904E80EF91EE5
:100BA000C501B4010E943B0C9B01AC01C301B20121
:100BB0000E94910D4B015C01DACFC701DF91CF910B
:100BC0001F91FF90EF90DF90CF90BF90AF909F90DC
:100BD0008F907F906F905F904F903F902F900895EF
:100BE000CF93DF93AB01BC0122E08BEB91E00E943D
:100BF0000205EC0166E371E08BEB91E00E947A0460
:100C00008C0F9D1FDF91CF910895CF92DF92EF92CD
:100C1000FF92CF93DF93EC010E94AB02C0907C0166
:100C2000D0907D01E0907E01F0907F016C197D09EC
:100C30008E099F09683E73408105910548F4CE01F5
:100C4000DF91CF91FF90EF90DF90CF900C94D5047F
:100C50000E94AB026C197D098E099F09603D7740A7
:100C60008105910560F46AE671E088E892E0DF9121
:100C7000CF91FF90EF90DF90CF900C947A040E9478
:100C8000AB0260937C0170937D0180937E01909311
:100C90007F01DF91CF91FF90EF90DF90CF9008958B
:100CA000EF92FF920F931F93CF93DF93EC017B01A1
:100CB000198218821B821A821D821C82FB010190FC
:100CC0000020E9F731978F01061B170BB8016F5F02
:100CD0007F4F90E080E00E9425100097B9F0998343
:100CE00088831B830A832C813D81232B11F4FC0113
:100CF00010821D830C83B70188819981DF91CF9188
:100D00001F910F91FF90EF900C94EB1088819981C7
:100D1000009711F00E949C0F198218821D821C827C
:100D20001B821A82DF91CF911F910F91FF90EF905C
:100D300008951F920F920FB60F9211242F933F9395
:100D40004F935F936F937F938F939F93AF93BF93D3
:100D5000EF93FF938BEB91E00E941401FF91EF91D1
:100D6000BF91AF919F918F917F916F915F914F91C3
:100D70003F912F910F900FBE0F901F9018951F92CB
:100D80000F920FB60F9211242F938F939F93EF938F
:100D9000FF93E091CB01F091CC018081E091D101F2
:100DA000F091D20182FD1BC090818091D4018F5FB0
:100DB0008F732091D501821741F0E091D401F0E0CA
:100DC000E554FE4F958F8093D401FF91EF919F9151
:100DD0008F912F910F900FBE0F901F9018958081CB
:100DE000F4CF1F920F920FB60F9211242F933F93BF
:100DF0008F939F93AF93BF938091810190918201D4
:100E0000A0918301B09184013091800123E0230FF0
:100E10002D3758F50196A11DB11D209380018093B7
:100E2000810190938201A0938301B093840180910A
:100E3000850190918601A0918701B091880101966A
:100E4000A11DB11D8093850190938601A093870118
:100E5000B0938801BF91AF919F918F913F912F9156
:100E60000F900FBE0F901F90189526E8230F029643
:100E7000A11DB11DD2CFEBEBF1E01382128288EEFF
:100E800093E0A0E0B0E084839583A683B78380E1FC
:100E900091E09183808385EC90E09587848784EC52
:100EA00090E09787868780EC90E0918B808B81EC37
:100EB00090E0938B828B82EC90E0958B848B86EC18
:100EC00090E0978B868B118E128E138E148EE8E82D
:100ED000F2E01382128282E291E09183808383E0C8
:100EE00084838FEF858384E0868385E0878386E033
:100EF000808787E0818788E082871386148615863D
:100F00001686178681E00E94C5036AE671E088E5CF
:100F100092E00E94500669E371E08EE592E00E9443
:100F200050066BE371E084E692E00E9450066DE3A8
:100F300071E08AE692E00E9450066FE371E080E77C
:100F400092E00E94500661E471E086E792E00E9420
:100F5000500663E671E08CE792E00E94500663E47D
:100F600071E082E892E00C945006789484B5826037
:100F700084BD84B5816084BD85B5826085BD85B53D
:100F8000816085BD80916E00816080936E001092BB
:100F90008100809181008260809381008091810036
:100FA00081608093810080918000816080938000C7
:100FB0008091B10084608093B1008091B000816025
:100FC0008093B00080917A00846080937A00809151
:100FD0007A00826080937A0080917A0081608093A9
:100FE0007A0080917A00806880937A001092C10024
:100FF00060E08EE00E94230260E08FE00E94230206
:1010000060E080E10E94230282E00E94C50369E45F
:1010100071E088E892E00E947A04E091CB01F091BF
:10102000CC0182E08083E091C701F091C801108279
:10103000E091C901F091CA018FEC80831092D30135
:10104000E091CF01F091D00186E08083E091CD0165
:10105000F091CE01808180618083E091CD01F0919B
:10106000CE01808188608083E091CD01F091CE0136
:10107000808180688083E091CD01F091CE018081F4
:101080008F7D808382E0282E312CC8E0D0E01AE0EA
:1010900006E090E0892E90E0992E8EE00E94CC012F
:1010A0007C019093A6018093A5018091A30190916A
:1010B000A401E816F90651F10E94AB0240909F018D
:1010C0005090A0016090A1017090A201641975096F
:1010D000860997096531710581059105B8F00E946F
:1010E000AB0260939F017093A0018093A101909344
:1010F000A20181E0E816F10449F480919D019091EC
:101100009E01019690939E0180939D01F092A4010F
:10111000E092A3018FE00E94CC017C0190939C019E
:1011200080939B018091990190919A01E816F906AC
:1011300051F10E94AB024090950150909601609051
:1011400097017090980164197509860997096531AE
:10115000710581059105B8F00E94AB02609395017D
:1011600070939601809397019093980181E0E8161F
:10117000F10449F480919301909194010196909328
:10118000940180939301F0929A01E092990180E199
:101190000E94CC017C0190939201809391018091F7
:1011A0008F0190919001E816F90651F10E94AB026F
:1011B00040908B0150908C0160908D0170908E0159
:1011C00064197509860997096531710581059105CD
:1011D000B8F00E94AB0260938B0170938C018093F6
:1011E0008D0190938E0181E0E816F10449F480911D
:1011F000890190918A01019690938A0180938901D7
:10120000F0929001E0928F01E0910001F0910101D4
:10121000808191816AE070E00E94B00E6C01909331
:10122000A8018093A701E0910401F091050180815C
:101230009181B1010E94B00E019709F03CC011826A
:101240001082E0910201F091030180819181BE0141
:101250000E94B00E88309105E0F4FC01EE5CF64F80
:101260000C94E60E3A096B0AA20A220B220B220BFF
:101270004909680B8091A9019091AA01189FB001BA
:10128000199F700D1124C60ED71ED092AA01C092CC
:10129000A901E0910001F091010111821082E09119
:1012A0000201F091030111821082E0910401F0919A
:1012B00005011182108265E671E08BEB91E00E94DE
:1012C0007A046091B7017091B8018091B901909151
:1012D000BA010E94F0056CE671E08BEB91E00E9490
:1012E0007A046091B3017091B4018091B50190913D
:1012F000B6010E94F00563E771E08BEB91E00E947C
:101300007A046091AB017091AC018091AD01909134
:10131000AE010E94F0050E94BD0380E00E946604B9
:10132000C090B701D090B801E090B901F090BA0137
:10133000C701B6010E94700E2B016091B30170913C
:10134000B4018091B5019091B6010E94700E709326
:10135000B2016093B101B201052C000C880B990B0E
:101360000E943D0C9B01AC01C701B6010E94360CE6
:1013700081110DC290E080E04114510409F411C2C2
:10138000C2010E94D5042091AF013091B001211516
:10139000310509F011C2E0910201F0910301808151
:1013A0009181BE010E94B00E089F9001099F300DEF
:1013B0001124C901885A9D4F0E94BA00A090B10122
:1013C000B090B201C090B301D090B401E090B501EB
:1013D000F090B6014090B7015090B8016090B9010B
:1013E0007090BA01B5010B2C000C880B990B0E9470
:1013F0003D0CA70196010E94360C20E030E0A901C7
:101400008111EEC1C301B2010E94360C20E030E030
:10141000A9018111D7C1C701B6010E94360C811103
:10142000DBC18091AF019091B001892B99F0E091DF
:101430000201F091030180819181BE010E94B00EF2
:10144000089F9001099F300D1124C901885A9D4FB2
:101450000E94BA00E090A901F090AA0120E030E0DB
:10146000A9016091AB017091AC018091AD019091A7
:10147000AE010E94360C882309F4D6C1E114F104B0
:1014800009F0D2C18091A7019091A801892B09F0A0
:10149000CBC181E00E94660469E371E088E892E0D4
:1014A0000E947A044091AB015091AC016091AD0172
:1014B0007091AE0122E088E892E00E94020581145A
:1014C000910409F4EACD0E940001882309F4E5CDD6
:1014D0000E940000E2CD0E94BB028091A901909180
:1014E000AA01009719F4C114D10439F14091AB015C
:1014F0005091AC016091AD017091AE014093B70184
:101500005093B8016093B9017093BA01189FB0016C
:10151000199F700D11246C0D7D1D072E000C880B7A
:10152000990B0E943D0C6093B3017093B4018093BA
:10153000B5019093B6010E94BB021092AA011092CD
:10154000A901A7CEE090A901F090AA0120E030E027
:10155000A9016091B7017091B8018091B901909192
:10156000BA010E94360C811116C01E9DB0011F9D4C
:10157000700D11246C0D7D1D072E000C880B990B2E
:101580000E943D0C6093B7017093B8018093B9013C
:101590009093BA013DC020E030E0A9016091B30111
:1015A0007091B4018091B5019091B6010E94360C02
:1015B000811116C01E9DB0011F9D700D11246C0D70
:1015C0007D1D072E000C880B990B0E943D0C60932B
:1015D000B3017093B4018093B5019093B60118C024
:1015E0000E94BB028091AB019091AC01A091AD0132
:1015F000B091AE018093B7019093B801A093B90167
:10160000B093BA01C114D104A9F6E114F10491F622
:101610001092AB011092AC011092AD011092AE018C
:101620001092AA011092A901E0910201F091030128
:1016300080819181BE010E94B00E9093B001809391
:10164000AF0127CE8091A9019091AA01189FB00106
:10165000199F700D1124C60ED71E20E030E0A9019D
:101660006091B7017091B8018091B9019091BA0170
:101670000E94360C0D2C000CEE08FF08811103C0EF
:10168000C701B6017DCF20E030E0A9016091B30130
:101690007091B4018091B5019091B6010E94360C11
:1016A000811103C0C701B60190CF0E94BB02809197
:1016B000AB019091AC01A091AD01B091AE018093CE
:1016C000B7019093B801A093B901B093BA01EACFE2
:1016D0000E94BD0380E00E94660467E571E088E82F
:1016E00092E00E947A0468EE73E080E090E00E944D
:1016F0007902809198028B7F8093980288600E9483
:10170000B70364EF71E080E090E00E94790280917D
:101710009802982F9460909398028C600E94B7036F
:101720001092B7011092B8011092B9011092BA014B
:101730001092B3011092B4011092B5011092B6014B
:101740001092AA011092A9011092A8011092A7016B
:101750001092B0011092AF011092AB011092AC0147
:101760001092AD011092AE01E0910001F0910101E3
:1017700011821082E0910201F09103011182108226
:10178000E0910401F09105011182108282CD20E0E8
:1017900030E0A901C701B6010E94360C811104C0D6
:1017A000C2010E940506EFCD22E0B701A60188E83C
:1017B00092E00E940205E7CD029FC001039F900DB9
:1017C0001124F8CDC701B6010E94360C811104C066
:1017D000C5010E94050625CEC5010E94D50421CE73
:1017E000C301B2010E94360C20E030E0A901811152
:1017F0000FC0C701B6010E94360C882309F411CE30
:1018000022E0B701A60188E892E00E94020509CE15
:10181000C701B6010E94360C8111F2CFC701B60193
:101820000E94700ECB01D5CF81E00E946604E114C6
:10183000F10419F0C7010E94D5048091A70190918D
:10184000A8010E94D5043BCECF93DF93C8E8D2E035
:10185000269788819981009711F00E949C0F82E061
:10186000C835D807A9F7DF91CF9108950E94780C69
:1018700008F481E00895E89409C097FB3EF4909540
:101880008095709561957F4F8F4F9F4F9923A9F059
:10189000F92F96E9BB279395F695879577956795E8
:1018A000B795F111F8CFFAF4BB0F11F460FF1BC02C
:1018B0006F5F7F4F8F4F9F4F16C0882311F096E9BF
:1018C00011C0772321F09EE8872F762F05C066236D
:1018D00071F096E8862F70E060E02AF09A95660F26
:1018E000771F881FDAF7880F9695879597F90895DF
:1018F000990F0008550FAA0BE0E8FEEF1616170621
:10190000E807F907C0F012161306E407F50798F088
:10191000621B730B840B950B39F40A2661F0232BA1
:10192000242B252B21F408950A2609F4A140A6951D
:101930008FEF811D811D08950E94AF0C0C94200D26
:101940000E94120D38F00E94190D20F0952311F01D
:101950000C94090D0C940F0D11240C94540D0E943D
:10196000310D70F3959FC1F3950F50E0551F629FA5
:10197000F001729FBB27F00DB11D639FAA27F00DE8
:10198000B11DAA1F649F6627B00DA11D661F829F0F
:101990002227B00DA11D621F739FB00DA11D621FF4
:1019A000839FA00D611D221F749F3327A00D611D11
:1019B000231F849F600D211D822F762F6A2F1124F3
:1019C0009F5750409AF0F1F088234AF0EE0FFF1F26
:1019D000BB1F661F771F881F91505040A9F79E3F7D
:1019E000510580F00C94090D0C94540D5F3FE4F305
:1019F000983ED4F3869577956795B795F795E795D3
:101A00009F5FC1F7FE2B880F911D9695879597F9DB
:101A1000089597F99F6780E870E060E008959FEF70
:101A200080EC089500240A94161617061806090675
:101A3000089500240A941216130614060506089544
:101A4000092E0394000C11F4882352F0BB0F40F4CC
:101A5000BF2B11F460FF04C06F5F7F4F8F4F9F4F0C
:101A6000089557FD9058440F551F59F05F3F71F08E
:101A70004795880F97FB991F61F09F3F79F08795F5
:101A80000895121613061406551FF2CF4695F1DF7E
:101A900008C0161617061806991FF1CF869571050E
:101AA000610508940895E894BB2766277727CB0142
:101AB00097F908952F923F924F925F926F927F9283
:101AC0008F929F92AF92BF92CF92DF92EF92FF924E
:101AD0000F931F93CF93DF93CDB7DEB7CA1BDB0BFA
:101AE0000FB6F894DEBF0FBECDBF09942A8839889F
:101AF00048885F846E847D848C849B84AA84B984A6
:101B0000C884DF80EE80FD800C811B81AA81B981B1
:101B1000CE0FD11D0FB6F894DEBF0FBECDBFED01C5
:101B200008955058BB27AA270E94A90D0C94200D98
:101B30000E94120D38F00E94190D20F039F49F3FD9
:101B400019F426F40C940F0D0EF4E095E7FB0C94B9
:101B5000090DE92F0E94310D58F3BA176207730778
:101B60008407950720F079F4A6F50C94530D0EF434
:101B7000E0950B2EBA2FA02D0B01B90190010C019D
:101B8000CA01A0011124FF27591B99F0593F50F4B5
:101B9000503E68F11A16F040A22F232F342F44270D
:101BA000585FF3CF469537952795A795F040539505
:101BB000C9F77EF41F16BA0B620B730B840BBAF0D5
:101BC0009150A1F0FF0FBB1F661F771F881FC2F740
:101BD0000EC0BA0F621F731F841F48F48795779554
:101BE0006795B795F7959E3F08F0B0CF9395880F0E
:101BF00008F09927EE0F9795879508950E94120E89
:101C00000C94200D0E94190D58F00E94120D40F006
:101C100029F45F3F29F00C94090D51110C94540DD7
:101C20000C940F0D0E94310D68F39923B1F35523E5
:101C300091F3951B550BBB27AA27621773078407DF
:101C400038F09F5F5F4F220F331F441FAA1FA9F375
:101C500035D00E2E3AF0E0E832D091505040E69563
:101C6000001CCAF72BD0FE2F29D0660F771F881FC4
:101C7000BB1F261737074807AB07B0E809F0BB0BB7
:101C8000802DBF01FF2793585F4F3AF09E3F5105CB
:101C900078F00C94090D0C94540D5F3FE4F3983EDA
:101CA000D4F3869577956795B795F7959F5FC9F7B4
:101CB000880F911D9695879597F90895E1E0660F35
:101CC000771F881FBB1F621773078407BA0720F0AE
:101CD000621B730B840BBA0BEE1F88F7E095089517
:101CE0000E94770E6894B1110C94540D08950E94CF
:101CF000390D88F09F5798F0B92F9927B751B0F058
:101D0000E1F0660F771F881F991F1AF0BA95C9F77F
:101D100014C0B13091F00E94530DB1E008950C94BD
:101D2000530D672F782F8827B85F39F0B93FCCF370
:101D3000869577956795B395D9F73EF490958095FC
:101D4000709561957F4F8F4F9F4F08950E94780C3B
:101D500008F48FEF08950E94780C880B990B089572
:101D600097FB072E16F4009407D077FD09D00E9448
:101D7000EC0E07FC05D03EF4909581959F4F089599
:101D8000709561957F4F0895A1E21A2EAA1BBB1B87
:101D9000FD010DC0AA1FBB1FEE1FFF1FA217B30737
:101DA000E407F50720F0A21BB30BE40BF50B661F4D
:101DB000771F881F991F1A9469F760957095809511
:101DC00090959B01AC01BD01CF010895EE0FFF1F5F
:101DD0000590F491E02D0994AA1BBB1B51E107C0AB
:101DE000AA1FBB1FA617B70710F0A61BB70B881FAB
:101DF000991F5A95A9F780959095BC01CD0108953A
:101E00000F931F93CF93DF938230910510F482E0FC
:101E100090E0E091A202F091A30230E020E0B0E077
:101E2000A0E0309799F42115310509F44AC0281B28
:101E3000390B24303105D8F58A819B8161157105F4
:101E400089F1FB0193838283FE0111C0408151819E
:101E50000281138148175907E0F04817590799F490
:101E6000109761F012960C93129713961C9332966A
:101E7000CF01DF91CF911F910F9108950093A2029E
:101E80001093A302F4CF2115310551F042175307E7
:101E900038F0A901DB019A01BD01DF01F801C1CFD2
:101EA000EF01F9CF9093A3028093A202CDCFFE0160
:101EB000E20FF31F819391932250310939832883D4
:101EC000D7CF2091A0023091A102232B41F4209181
:101ED0000801309109013093A1022093A0022091C2
:101EE0000601309107012115310541F42DB73EB7A8
:101EF00040910A0150910B01241B350BE091A00287
:101F0000F091A102E217F307A0F42E1B3F0B281754
:101F1000390778F0AC014E5F5F4F2417350748F062
:101F20004E0F5F1F5093A1024093A00281939193A3
:101F30009FCFF0E0E0E09CCFCF93DF930097E9F0F4
:101F4000FC01329713821282A091A202B091A302E7
:101F5000ED0130E020E01097A1F420813181820F63
:101F6000931F2091A0023091A1022817390709F090
:101F700061C0F093A102E093A002DF91CF91089598
:101F8000EA01CE17DF07E8F54A815B819E01411522
:101F90005105B1F7E901FB83EA8349915991C40FD7
:101FA000D51FEC17FD0761F4808191810296840FA3
:101FB000951FE90199838883828193819B838A831A
:101FC000F0E0E0E012968D919C9113970097B9F59F
:101FD0002D913C911197CD010296820F931F209174
:101FE000A0023091A1022817390739F6309751F530
:101FF0001092A3021092A202B093A102A093A00299
:10200000BCCFD383C28340815181840F951FC817F1
:10201000D90761F44E5F5F4F88819981480F591F3E
:10202000518340838A819B8193838283211531056B
:1020300009F0B0CFF093A302E093A2029ECFFD017E
:10204000DC01C0CF13821282D7CFB0E0A0E0EBE278
:10205000F0E10C945C0D8C01009751F4CB010E94CF
:10206000000F8C01C801CDB7DEB7E0E10C94780D0C
:10207000FC01E60FF71F9C0122503109E217F3071C
:1020800008F49DC0D901CD91DC911197C617D707EF
:1020900098F0C530D10530F3CE0104978617970725
:1020A00008F3C61BD70B2297C193D1936D937C93F2
:1020B000CF010E949C0FD6CF5B01AC1ABD0A4C0128
:1020C0008C0E9D1EA091A202B091A302512C412C16
:1020D000F12CE12C109731F58091A0029091A10292
:1020E0008815990509F05CC04616570608F058C0D7
:1020F0008091060190910701009741F48DB79EB73A
:1021000040910A0150910B01841B950BE817F907C8
:1021100008F055C0F093A102E093A002F901718389
:102120006083A0CF8D919C91119712966C9012971D
:1021300013967C901397A815B90559F56C0142E0E8
:10214000C40ED11CCA14DB0420F1AC014A195B098E
:10215000DA011296159780F0628273825183408370
:10216000D9016D937C93E114F10471F0D7011396BA
:10217000FC93EE93129776CF22968C0F9D1FF90158
:1021800091838083F301EFCFF093A302E093A20247
:1021900069CF4816590608F42C017D01D3019ACF66
:1021A000CB010E94000F7C01009749F0AE01B801FD
:1021B0000E94E210C8010E949C0F870153CF10E0DB
:1021C00000E050CFFB01DC0102C001900D924150B4
:1021D0005040D8F70895FB01DC0101900D920020DA
:1021E000E1F7089510E0C2E6D0E004C0FE010E94CD
:0E21F000E60E2196C336D107C9F7F894FFCF4B
:1021FE009D01930189010000A402800000000000EF
:10220E0036018D00C3008301F400D200E600000009
:10221E00000074048D00B802B7026E616E00696E24
:10222E0066006F7666000D0A003D002B002D002A19
:10223E00002F00524553455400427573682064695F
:10224E006420392F31310052455354415254494E76
:10225E00472E2E2E006E756D313A20006E756D3242
:0C226E003A2000726573756C742000004B
:00000001FF
